:020000040800F2
:1000000028D800205D020008DB130008F712000862
:10001000D91300088D0300088115000800000000B6
:100020000000000000000000000000009D0100082A
:100030008F03000800000000F9010008DD1300082C
:1000400077020008770200087702000877020008AC
:100050007702000877020008910300087702000881
:10006000770200087702000877020008770200088C
:10007000770200087702000877020008770200087C
:10008000770200087702000877020008770200086C
:10009000770200087702000877020008770200085C
:1000A000770200087702000877020008770200084C
:1000B000770200087702000877020008770200083C
:1000C000770200087702000877020008770200082C
:1000D000770200087702000877020008770200081C
:1000E000770200087702000877020008770200080C
:1000F00077020008770200087702000877020008FC
:1001000077020008770200087702000877020008EB
:10011000770200087702000877020008AD14000893
:1001200077020008770200087702000877020008CB
:1001300077020008770200087702000877020008BB
:1001400077020008770200087702000877020008AB
:10015000770200087702000877020008770200089B
:10016000770200087702000877020008770200088B
:1001700077020008770200087702000800000000FC
:100180007702000877020008DFF80CD000F0ECF8E6
:1001900000480047C115000828D800202C4B1968DA
:1001A0000868B0E8F04F80F30988BFF36F8F4FF015
:1001B000000080F3118870470000000008480068C4
:1001C000006880F308884FF0000080F3148862B65E
:1001D00061B6BFF34F8FBFF36F8F00DF00BF00BF6B
:1001E00008ED00E0DFF80C00016841F470010160E7
:1001F000704700BF88ED00E0EFF30980BFF36F8F19
:10020000134B1A681EF0100F08BF20ED108A20E96A
:10021000F04F106009B44FF0500080F31188BFF325
:100220004F8FBFF36F8F02F043F84FF0000080F361
:10023000118809BC19680868B0E8F04F1EF0100F6B
:1002400008BFB0EC108A80F30988BFF36F8F704746
:1002500024000020EFF30580704700000648804727
:1002600006480047FEE7FEE7FEE7FEE7FEE7FEE79B
:10027000FEE7FEE7FEE7FEE79114000889010008AB
:100280002DE9F05F0546002092469B4688460646CB
:10029000814640241BE0284641464746224600F05E
:1002A00053F853465A46C01A914110D31146184686
:1002B000224600F03AF82D1A67EB01084F46224615
:1002C0000120002100F031F817EB00094E41201EFB
:1002D000A4F10104DFDC484631462A464346BDE826
:1002E000F09F40EA01039B0703D009E008C9121FF1
:1002F00008C0042AFAD203E011F8013B00F8013BE0
:10030000521EF9D27047D2B201E000F8012B491E0B
:10031000FBD270470022F6E710B513460A460446A2
:100320001946FFF7F0FF204610BD202A04DB203AD3
:1003300000FA02F1002070479140C2F1200320FA38
:1003400003F3194390407047202A04DB203A21FA36
:1003500002F00021704721FA02F3D040C2F12002DE
:100360009140084319467047064C074D06E0E06887
:1003700040F0010394E8070098471034AC42F6D3EC
:10038000FFF706FF2C2F00084C2F0008FEE77047F0
:1003900010B509490020401C8842FCDB01210748B8
:1003A00000F048FB012801D105490870BDE8104064
:1003B000012000F057BA0000A086010000000240B2
:1003C00000000020F0B590F820500468A468012DCA
:1003D00005D0022D03D0416A41F4802153E014F08E
:1003E000406F01D1E5004BD5C4F30164022C03D961
:1003F000416A41F4000146E00125A5401D608D6879
:100400004FF4C0739DB1CE6835434E6845EAC605CA
:10041000066803EB0417F5514FF4C275076805EB46
:1004200004150E697E51097D012905D009E00E8869
:10043000CD6845EA4655EBE701684E5946F48076AB
:100440004E511179D2F805504FF4C67641EA052590
:10045000016806EB04168D511178D2F801204FF493
:10046000C47541EA0221026805EB04155151006888
:1004700003EB0411425842F0010242500020F0BD4B
:10048000416A41F4001141620120F0BD10B590F8BD
:100490002020012A07D0022A05D0416A41F4802198
:1004A0004162012010BD3B48D0F8002242F0010219
:1004B000C0F80022D0F8002222F47C52C0F80022BA
:1004C000D0F800224B6A42EA0322C0F800220A7DDB
:1004D00002F01F0301229A40D0F81C329343C0F867
:1004E0001C32CB69B3B9D0F80C329343C0F80C324C
:1004F0008C894B6864F31F434C6900EBC404C4F857
:1005000040320C890B6864F31F434C6900EBC40450
:10051000C4F84432CB69012B16D1D0F80C32134306
:10052000C0F80C320C884B6864F31F434C6900EB35
:10053000C404C4F840320C89CB6864F31F434C698F
:1005400000EBC404C4F844328B69002BD0F80432A9
:100550000ED01343C0F804320B69002BD0F81432CC
:1005600008D01343C0F81432096A012904D008E006
:100570009343EFE79343F5E7D0F81C121143C0F81B
:100580001C12D0F8001221F00101C0F80012002066
:1005900010BD00000064004030B590F82040012CF0
:1005A00005D0022C03D0416A41F480215DE004684B
:1005B000002955D02469A40754D04FF4D874056895
:1005C00004EB01142D5915F00405956005682D59AB
:1005D0004ED0ED08556005682C5904F00204D46033
:1005E0004FF4DA74056804EB01142D5905F00F057A
:1005F000156105682D59C5F30725956105682C59C6
:10060000240C54614FF4DC72046802EB0112A4580C
:100610001C700468A458240A5C700468A458240C54
:100620009C700468A258120EDA704FF4DE720468EF
:1006300002EB0112A4581C710468A458240A5C71CE
:100640000468A458240C9C710468A258120EDA7134
:10065000006881B1016941F020010161002030BDD5
:10066000E468A8E7416A41F400114162012030BD0D
:100670006D0D1560AFE7C16841F02001C160EDE785
:1006800070B5040003D094F8200010B104E00120FC
:1006900070BD204600F082F82068016821F0020158
:1006A000016000F0D1F90546052604E000F0CCF920
:1006B000401B0A2811D8206840688007F6D42068BB
:1006C000016841F00101016000F0BEF905460BE050
:1006D00000F0BAF9401B0A2806D9606A40F40030DD
:1006E000606284F82060D2E720684068C007EFD0DD
:1006F000207E0128206801683DD021F08001016042
:10070000607E01282068016838D021F04001016036
:10071000A07E01282068016833D021F0200101600B
:10072000E07E0128206801682ED041F010010160B0
:10073000207F01282068016829D021F0080101608C
:10074000607F01282068016824D021F00401016045
:10075000D4E902010843D4E9041211430843616853
:10076000491E08432168C86100206062012084F8A6
:100770002000002070BD41F08001C0E741F0400141
:10078000C5E741F02001CAE721F01001CFE741F0B1
:100790000801D4E741F00401D9E7000010B586B0A4
:1007A000044614216846FFF7B5FD144920688842C5
:1007B00021D113480021026842F0007202600068F3
:1007C00000F0007005900E481038026842F00202F6
:1007D0000260006800F0020005904FF44070009045
:1007E0000220CDE90101032003900920049069460D
:1007F000044800F043F806B010BD0000006400405B
:10080000403802400004024070B5044690F82000D1
:10081000012804D0606A40F40020606218E00220E1
:1008200084F820002068016821F00101016000F0D7
:100830000BF905460EE000BF00F006F9401B0A2840
:1008400008D9606A40F400306062052084F8200016
:10085000012070BD20684068C007EDD1606270BDA6
:1008600070470000044910B50A68024202D00860CF
:10087000FFF7F6FF10BD0000143C01402DE9F84FD2
:1008800000224FF0010803254FF00F0E0B6808FA05
:1008900002F42340A3426ED14E68012E05D0022EF1
:1008A00003D0112E01D0122E12D186684FEA420CCD
:1008B00005FA0CF7BE43CF6807FA0CF73743876099
:1008C0004668A6430C79C4F3001494403443446052
:1008D000C668570005FA07FC8C6826EA0C06BC407F
:1008E0003443C4604C68022C01D0122C13D1D408BC
:1008F00000EB8404A346D4F8209054074FEAD46A4E
:100900000EFA0AF629EA06090E6906FA0AF646EA16
:100910000906CBF8206006680C7926EA0C0604F07C
:100920000304BC40344304604C68E40065D5364C95
:10093000266846F480462660246822F0030604F404
:1009400080440094314C3444A446D4F808489607B7
:10095000370F0EFA07F6B4432D4EB04201D10026F0
:1009600024E02C4EB04201D101261FE02A4EB042B5
:1009700002D102261AE040E0284EB04201D10326FF
:1009800014E0274EB04201D104260FE0254EB042BC
:1009900001D105260AE0244EB04201D1062605E029
:1009A000224EB04201D1072600E00826BE40264371
:1009B000CCF808681E4E34684F689C43FF0300D58E
:1009C0001C4334601A4C241D26684F689E43BF03A5
:1009D00000D51E432660164E083634684F689C4387
:1009E000FF0200D51C433460114E0C3634684F684A
:1009F0009C43BF0200D51C433460521C102AFFF4F4
:100A000045AFBDE8F88F0000443802400030014097
:100A1000000002400004024000080240000C0240B6
:100A2000001002400014024000180240001C024066
:100A3000003C01400069084000D0012070470AB125
:100A4000816170470904FBE7014880687047000036
:100A500014000020024881680278114481607047C8
:100A6000140000200B4810B5016841F400710160CA
:100A7000016841F480610160016841F480710160A6
:100A8000032000F08DF8002000F006F800F03EF89A
:100A9000002010BD003C024010B5014688B0002285
:100AA000372000F05DF8372000F04CF813480024A0
:100AB000016841F020010160006805A900F02000F4
:100AC0000690684600F018F900F036F90C4940002D
:100AD000B0FBF1F10C480B4A491E026040F2E732CC
:100AE000C0E90324C0E9011400F016FB10B1012095
:100AF00008B010BD044800F02BFBF9E74038024075
:100B000040420F0000140040100100200C4882B049
:100B1000016841F480410160006800F48040009069
:100B20000748001F016841F0805101600068002201
:100B300000F0805000900F21901E02B000F010B81D
:100B400044380240002809DB00F01F0201219140D7
:100B50004009800000F1E020C0F80011704700005B
:100B6000F0B40E4B1B680C46C3F30223C3F1070518
:100B7000042D00D90425191D072901D2002300E006
:100B8000DB1E012606FA05F1491E214099409E40D0
:100B9000761E16403143F0BC00F0F3BC0CED00E0D3
:100BA000064900F0070208684FF6FF03184040EAC4
:100BB0000220034A10430860704700000CED00E07B
:100BC0000000FA052DE9F0470E46050065D0DFF874
:100BD0001481D8F80000F7B200F00F00B04207D23D
:100BE00088F80070D8F8000000F00F00B04254D12F
:100BF00028683D4C810712D5400703D5206840F492
:100C0000E05020602878000703D5206840F4604059
:100C100020602068A96820F0F00008432060287850
:100C2000C0072DD0304968680839012812D0022841
:100C300013D0032811D00968890700292DDA21680B
:100C400021F0030101432160FFF7FEFE814641F2DE
:100C5000883A0EE009688903EFE709688901ECE743
:100C6000FFF7F2FEA0EB0901514502D90320BDE8D0
:100C7000F0872068696800F00C00B0EB810FEFD1BD
:100C8000D8F80010404601F00F01B14207D90770B3
:100C9000006800F00F00B04201D00120E7E728789B
:100CA000400705D52068E96820F4E050084320603B
:100CB0002878000706D52068296920F4604040EABA
:100CC000C100206000F048F82168084AC1F3031110
:100CD000515CC8400649086006480068FFF7DCFE22
:100CE0000020C4E7003C024008380240142F0008EE
:100CF00020000020180000200F2202600C4A136818
:100D000003F003034360136803F0F0038360136888
:100D100003F4E053C36012684FF4E05303EAD202D5
:100D200002610448006800F00F000860704700008E
:100D300008380240003C0240044805490068096840
:100D4000044AC1F38221515CC84070472000002052
:100D500008380240242F0008154810B5006810F02C
:100D60000C02144813D04110042A0FD0082A0ED1C7
:100D70000F4C241F2268236802F03F025B0207D554
:100D80002068C0F38810A0FB010106E0084610BDF2
:100D90002168C1F38811A1FB00010023FFF770FA5D
:100DA0002168C1F30141491C4900B0FBF1F010BDBD
:100DB000083802400024F4002DE9F84F04006ED0FA
:100DC0002078DFF83C93C007A9F104054AD009F167
:100DD00004000168C1F38101012908D00068C0F353
:100DE000810002280AD1D9F80000400206D52868FF
:100DF000800337D560680028E1D033E06068B0F543
:100E0000803F10D0B0F5A02F286810D020F480309B
:100E10002860286820F4802028606068A8B1FFF767
:100E200013FE06460DE0286840F48030F4E740F4F5
:100E300080202860F7E700BFFFF706FE801B6428CC
:100E400073D828688003F7D50CE0FFF7FDFD064650
:100E500005E000BFFFF7F8FD801B6428F0D8286884
:100E60008003F7D42078DFF89C8280074FF0000AD7
:100E70003ED5A348001D016811F00C0F08D0006892
:100E8000C0F3810002280BD1D9F80000400207D43A
:100E90002868800716D5E068012800D112E02BE110
:100EA000E068B8B10120C8F80000FFF7CDFD0646A4
:100EB00005E000BFFFF7C8FD801B0228C0D82868E6
:100EC0008007F7D52868216920F0F80040EAC100C2
:100ED00028600DE0C8F800A0FFF7B6FD064604E064
:100EE000FFF7B2FD801B02281FD828688007F7D4BF
:100EF0002078000722D5824E83486169703671B12F
:100F000001210160FFF7A0FD074604E0FFF79CFD0B
:100F1000C01B022809D830688007F7D50EE0C0F85A
:100F200000A0FFF791FD074605E082E0FFF78CFD8A
:100F3000C01B02287DD830688007F7D4207840078E
:100F400068D5DFF8BCB100270BF13C0BDBF80000E3
:100F5000C0000BD4DBF8001041F08051CBF800103A
:100F6000DBF80000012700F080500090674E3068E9
:100F7000C00510D4306840F480703060FFF764FD25
:100F8000009005E0FFF760FD0099401A022850D854
:100F90003068C005F6D55A4EA0686C3601280FD0CF
:100FA0000528306810D020F001003060306820F053
:100FB00004003060A068B8B1FFF746FD00900FE074
:100FC000306840F00100F4E740F004003060F7E7DB
:100FD000FFF73AFD0099411A41F28830814266D804
:100FE00030688007F4D50EE0FFF72EFD009007E093
:100FF000FFF72AFD0099411A41F28830814256D804
:1010000030688007F4D42FB1DBF8001021F0805154
:10101000CBF80010A069C8B33949091D0968C1F3AC
:10102000810102294AD00228504607D0C8F8600042
:1010300000E03CE0FFF708FD04463BE04746C8F807
:101040006000FFF701FD064605E000BFFFF7FCFC6E
:10105000801B02282BD828688001F7D4D4E9070127
:101060000843A16A2A4A490802EB0141626A41EA3F
:101070008211084394F82C1040EA0161C9F800106D
:1010800001203866FFF7E0FC044606E036E000BFCA
:10109000FFF7DAFC001B022809D828688001F7D581
:1010A0002CE000BFFFF7D0FC001B022802D9032070
:1010B000BDE8F88F28688001F4D41FE00128F7D03C
:1010C000D9F80000E26900F48001914214D1226A4B
:1010D00000F03F0191420FD147F6C071626A0140B2
:1010E000914209D1A26A00F44031914204D1E16AEF
:1010F00000F07060884201D00120D9E70020D7E7D6
:101100000438024000004742800E47420070004011
:101110000000FFFF7047704710B5040003D094F83B
:101120003D0010B107E0012010BD002084F83C0014
:10113000204600F00CF8022084F83D00211D2068B4
:1011400000F0BAF9012084F83D00002010BD70477E
:101150000168CA6842F00102CA600068816801F053
:101160000701062903D0016841F001010160002058
:101170007047704770B50446006801694FF000057C
:10118000C943890715D4C168C943890711D4E91E29
:10119000016101202077206880698007204602D005
:1011A000FFF7E7FF04E000F098F8204600F096F81B
:1011B000257720680169C943490717D4C168C94325
:1011C000490713D46FF004010161022020772068E1
:1011D000806910F4407F204602D0FFF7CAFF04E088
:1011E00000F07BF8204600F079F825772068016947
:1011F000C943090716D4C168C943090712D46FF05F
:1012000008010161042020772068C069800720461A
:1012100002D0FFF7AEFF04E000F05FF8204600F0D8
:101220005DF8257720680169C943C90617D4C168EC
:10123000C943C90613D46FF010010161082020775B
:101240002068C06910F4407F204602D0FFF791FF6C
:1012500004E000F042F8204600F040F825772068CE
:101260000169C943C90708D1C168C943C90704D185
:10127000891E0161204600F033F820680169C943E6
:10128000090609D4C168C943090605D46FF0800175
:1012900001612046FFF73EFF20680169C943490606
:1012A00009D4C168C943490605D46FF04001016102
:1012B000204600F01FF820680169C94389060BD455
:1012C000C168C943890607D46FF020010161204637
:1012D000BDE87040FFF71FBF70BD7047704700004A
:1012E00000680349884201D1FFF7B4BB7047000092
:1012F000001400407047FEE70C480B494FF43022C1
:10130000016015214160890781600021C0E9031255
:101310004FF440124261017641768176C1760177C1
:101320004177FFF7ADB90000006400408C00002059
:10133000F0B587B014216846FEF7ECFF2248002480
:10134000016841F080010160016801F080010591B0
:10135000016841F001010160016801F0010105919E
:10136000016841F008010160016801F00801059180
:10137000016841F0020101600068144F00F00200B2
:101380004FF470460590002231463846FFF757FB70
:1013900001250F480095CDE9010469460D48FFF786
:1013A0006DFA0096CDE90154694638460394FFF77B
:1013B00065FA002205210620FFF7D2FB0620FFF781
:1013C000C1FB07B0F0BD000030380240000C024005
:1013D0000000111000000240FEE7704710B55020D9
:1013E00080F31188BFF34F8FBFF36F8F01F0B4FB11
:1013F00018B104494FF080500860002080F3118834
:1014000010BD000004ED00E030B593B03021684617
:10141000FEF780FF14210CA8FEF77CFF1A48002578
:10142000016841F080510160006800F08050119027
:101430001648016841F4804101600068022400F40C
:101440008040119001200090000401908001CDE9BE
:101450000640082008904FF4A870CDE90904072041
:101460000B906846FFF7A8FC0CA90F2081E831001B
:101470004FF4A0500F90E002109005210CA8FFF748
:10148000A1FB13B030BD00004038024000700040A6
:101490000548016841F47001016003494FF00060A4
:1014A000803908607047000088ED00E00148FFF7D0
:1014B00061BE000010010020F0B50268254C264DE9
:1014C000264E274F274B4FF0804CA04209D0604555
:1014D00007D0A84205D0B04203D0B84201D098420C
:1014E00004D122F0700E4A6842EA0E02A0421BD0DC
:1014F000604519D0A84217D0B04215D0B84213D0D9
:10150000984211D0184DA8420ED0184DA8420BD0C9
:10151000174DA84208D0174DA84205D0164DA84235
:1015200002D0164DA84203D122F44075CA682A435E
:101530004D6922F080022A4302608A68C2620A680A
:101540008262A04201D0984201D109690163012160
:101550004161F0BD0000014000040040000800406F
:10156000000C0040000401400040014000440140E4
:101570000048014000180040001C004000200040CE
:10158000FEE70907090E002804DB00F1E02080F8DF
:101590000014704700F00F0000F1E02080F8141DE7
:1015A000704702E008C8121F08C1002AFAD170472C
:1015B0007047002001E001C1121F002AFBD17047D3
:1015C0001CB5FFF74FFAFFF71FFFFFF7B1FEFFF75C
:1015D00093FE21484FF411720021026001248160C2
:1015E000C0E90314343044F6A0020161C0E90021CF
:1015F0008160C4610462C16001465C38FEF746FF49
:1016000015482838FFF700F900F032F803220021CE
:10161000012000F0F9FE11494860D0B102200831E4
:101620004502CDE9000100232A460DA10D4801F035
:1016300027FA012800D0FEE7084800230C30CDE946
:1016400000402A4608A1094801F01AFA012800D0F2
:10165000FEE700F027F8FEE7B400002000000020BD
:10166000527800008D20000854780000C520000842
:10167000EFF3058068B9EFF310820949086812B9E1
:10168000EFF311820AB1022803D028B14FF0FF30E6
:1016900070476FF005007047012008600020704718
:1016A0007400002010B5EFF3058070B9EFF31082DD
:1016B0000A49086812B9EFF311820AB1022804D06E
:1016C000012805D04FF0FF3010BD6FF0050010BDB0
:1016D0000220086000F0A0FD002010BD7400002072
:1016E0002DE9F041134C0F46054666692068001D40
:1016F00000F0BCFB681C07D137B12168BDE8F041A0
:101700000D48091D00F004BC20683544B542456011
:10171000216805D2A068BDE8F041091D00F0E0BBDA
:101720006068091D00F0DCFB206B854200D2256358
:10173000BDE8F08124000020400600202DE9F041A2
:10174000054600F0F1FB2D4C2069401C206120680B
:101750002B4F10B1E06930B32BE0256020690128E0
:1017600027D1002606EB860007EB800000F0AAFBDD
:10177000761C382EF6D3234800F0A4FB2148143001
:1017800000F0A0FB1F48283000F09CFB1D483C30B7
:1017900000F098FB1B48503000F094FB1948606043
:1017A0001430A06005E02068E96AC06A884200D869
:1017B0002560E06A401CE0626864E86AA1698842CA
:1017C00000D9A06100EB800007EB8000291D00F02C
:1017D0009FFB00F0C9FBE06900280CD02068E96A93
:1017E000C06A884207D208494FF080500860BFF3B2
:1017F0004F8FBFF36F8FBDE8F08100002400002001
:1018000090010020F005002004ED00E038B500F064
:101810008BFB104CA068C8B90F4800F053FB0E4872
:10182000143000F04FFB0C482060143060600A4B0D
:1018300000202833009003F1500210210A2000F00C
:1018400007FEA06010B105A100F0EAFBBDE838403A
:1018500000F08ABB6000002054060020546D7251D5
:101860000000000030B4026C0B46002A0BD0C168A7
:101870001144C1608468A14201D30168C16030BCD9
:101880001846FEF72EBD30BC70472DE9F041856B40
:10189000174604460026026C82B1C7B1E068FEF725
:1018A00020FDE168206C091AE1602268914202D2B1
:1018B000A168081AE060022F16D017E02068A8B9C6
:1018C000A06801F0ADF906460020A0600EE0606857
:1018D000FEF707FD216C606808446060A1688842DB
:1018E00004D32068606001E005B16D1E6D1CA56326
:1018F0003046BDE8F08110B5044690F8590058B163
:1019000001280CD002280FD0502080F31188BFF39B
:101910004F8FBFF36F8FFEE7206B00F039FB20463F
:10192000BDE8104000F034BB10BD0000144E154C53
:10193000A6F29C474FF08058DFF84C9012E000BFB1
:1019400000F0F2FAF068C568281D00F08FFA2069EF
:10195000401E2061E068401EE06000F005FB284664
:10196000FFF7C9FFE0680028EAD138680128F9D9F3
:10197000C9F80080BFF34F8FBFF36F8FF2E700000D
:101980002C0600202400002004ED00E070B51D4668
:10199000049C51B1C4F80020C4E90F010121204684
:1019A00000F08AFD84F84C5070BD2460F4E700001C
:1019B0002DE9F05F8846DDE90B94154683469100DA
:1019C0009A460A9EA522206BFEF79DFC6FF003014C
:1019D000206B01EB8501084420F00707780707D04A
:1019E000502080F31188BFF34F8FBFF36F8FFEE756
:1019F0000025B8F1000F0FD05FF00000221818F892
:101A0000001082F8341018F8001011B1401C102892
:101A1000F4D384F8435001E084F83450382E00D3D6
:101A20003726E662C4E91365201D00F056FA04F17A
:101A3000180000F052FA2461C6F138006462A06117
:101A4000656584F8585052465946384600F0F8F912
:101A50002060B9F1000F01D0C9F80040BDE8F09F47
:101A600070B5002441600B4D0061914206D8D11A37
:101A70008269914206D2011D686807E09A4203D24A
:101A8000994201D3012403E0011D286800F028FADF
:101A9000204670BD6000002010B5044600F044FAF6
:101AA000A06B28B15FF0000400F05EFA204610BD84
:101AB0000124F9E730B589B03C4D6EE00498002868
:101AC00006DADDE90601059A90470498002864DBF0
:101AD000069C606910B1201D00F0C8F903A800F051
:101AE000D7F8024604980A2857D2DFE800F0050527
:101AF000052D334A05052D3394F8280040F00100E8
:101B000084F828000599A069059B01442046FFF749
:101B1000A7FF68B3216A2046884794F82800400749
:101B20003BD5002000900598A16900234218194672
:101B3000204601F0BBF9D8B9502080F31188BFF3DB
:101B40004F8FBFF36F8FFEE714F8280F20F00100CE
:101B5000207022E094F8280040F0010084F828006A
:101B60000598A06128B1811813462046FFF778FF39
:101B700013E0502080F31188BFF34F8FBFF36F8FB6
:101B8000FEE794F82800810703D4204600F000FA0D
:101B900003E020F0010084F82800002204A9A868CE
:101BA00000F0DCFD002889D109B030BD60000020C4
:101BB0002DE9FC410F46054600F072FB01A800F03C
:101BC00067F80446019818B101F0DEF8BDE8FC8121
:101BD000254EAFB170680068D0B30027291B3A4684
:101BE000B06800F031FA01F0CFF80028EED11F49BB
:101BF0004FF080500860BFF34F8FBFF36F8FE5E762
:101C0000A542EBD801F0C0F830682746C068C46828
:101C1000201D00F02BF994F82800410719D5A06980
:101C20002B4641193A462046FFF71AFFA8B100207B
:101C30000346014600902A46204601F037F960B974
:101C4000502080F31188BFF34F8FBFF36F8FFEE7F3
:101C500007E020F0010084F82800216A2046884728
:101C6000B4E70127BAE700006000002004ED00E0BF
:101C700006484168096829B14168C968C968496866
:101C8000016370474FF0FF31FAE7000024000020A5
:101C900070B5054600F05AFF064E0446306984428E
:101CA00003D200F009F8012000E00020286020465F
:101CB000346170BD60000020F8B5194D20E0C068A7
:101CC000C4680668201D00F0D1F8216A20468847C4
:101CD00094F82800400713D5A0693044B04206D9D3
:101CE00024616060211D286800F0FAF808E00020F7
:101CF0000346014600903246204601F0D7F838B13D
:101D0000286801680029DAD16968C5E90010F8BDC2
:101D1000502080F31188BFF34F8FBFF36F8FFEE722
:101D20006000002008484068401C4FF0500080F3DD
:101D3000118804D0BFF34F8FBFF36F8FFEE7BFF35F
:101D40004F8FBFF36F8FFEE778000020074C2068AD
:101D5000016841B1C0680021D0F80000FFF728FFFA
:101D6000FFF7A8FEF3E701210020F7E7600000205D
:101D70002DE9F041044600F0D7F894F9455004F1FC
:101D8000240609E0606A48B1304600F0C5FF08B19A
:101D900000F0C0F96D1E6DB2002DF3DC4FF0FF3680
:101DA00084F8456000F0E0F800F0BEF894F9445083
:101DB00004F1100709E0206948B1384600F0ACFF93
:101DC00008B100F0A7F96D1E6DB2002DF3DC84F8A8
:101DD0004460BDE8F04100F0C7B8000070B50446AB
:101DE0000025400704D004F00700C0F108000444B7
:101DF00000F056FA0A49486818B90A4820F0070066
:101E000048600A6843F6F8331019984204D29042A9
:101E100002D94B6808609D1800F0B6FF284670BDD7
:101E2000840000202C1C00200449086818B10868B0
:101E3000026D521C026508687047000024000020F3
:101E400010B5031F4FF080741C601B1F21F00101AF
:101E50001960191F044B0B6014390A60091F6FF0D9
:101E6000020244380A6010BD251D0008D0E9013285
:101E700001699A60D0E901235A604A68824201D11F
:101E800082684A60002202610868401E0860086893
:101E900070470000044B036003F15C0008604FF4DE
:101EA00080601060704700006C070020044B0360E6
:101EB00003F15C0008604FF4807010607047000010
:101EC000C817002000F108014FF0FF32C0E90112ED
:101ED000C16001610021016070470021016170470C
:101EE00030B50B685A1C02D000F1080202E002690A
:101EF00004E02246546825689D42FAD953684B6035
:101F000099608A60516008610168491C016030BDB8
:101F100042684A6093688B60936859609160086179
:101F20000168491C01607047502080F31188BFF39D
:101F30004F8FBFF36F8F0A494868401C48600128E3
:101F40000CD10848006810F0FF0F07D0502080F334
:101F50001188BFF34F8FBFF36F8FFEE7704700000C
:101F60007800002004ED00E00849486828B1401ED0
:101F7000486001D180F311887047502080F31188A8
:101F8000BFF34F8FBFF36F8FFEE700007800002094
:101F9000002807D0502080F31188BFF34F8FBFF384
:101FA0006F8FFEE7704700004FF0E02000210161D5
:101FB000816105494FF47A720968B1FBF2F1491E5B
:101FC00041610721016170472000002010B5FEF734
:101FD00041F9114910280ED300F1E02090F8F003E8
:101FE0000A78904207D2502080F31188BFF34F8FB8
:101FF000BFF36F8FFEE709480068896800F4E0606E
:10200000884207D9502080F31188BFF34F8FBFF368
:102010006F8FFEE710BD0000780000200CED00E09F
:1020200010B5084B002200BF53F832401CB1521CBF
:10203000082AF9D310BD43F8321003EBC2014860FF
:1020400010BD00005001002070B515460E46044634
:10205000FFF76AFF94F944100020491C01D184F86D
:10206000440094F94510491C01D184F84500FFF75C
:102070007BFFA06B28B92A46314604F1240000F00A
:1020800067F82046BDE87040FFF772BE0A4C0B4D62
:102090004FF0FF363146606800F0FCFB064B084A03
:1020A0009B1C0021A2F14000FEF776FA0028F5D132
:1020B000A07800032860EDE700000020140C024027
:1020C000CC0000200D4C002520780028FCD0607842
:1020D0000A4B401C60700A4910332570A3F10F02AF
:1020E000A1F12800FEF76EF90028EDD100231A4671
:1020F0001946606800F024FAE6E7000000000020BE
:10210000B400002002498A6A026049694160704750
:10211000240000200149012048627047240000206B
:1021200010B50C4650B1094909681831FFF7D8FEBF
:102130002046BDE810400121FFF7D2BA502080F3BD
:102140001188BFF34F8FBFF36F8FFEE7240000208D
:1021500070B514460D4668B10A4909681831FFF791
:10216000D7FE0CB14FF0FF3521462846BDE8704040
:10217000FFF7B6BA502080F31188BFF34F8FBFF33B
:102180006F8FFEE72400002070B504003ED0226D62
:10219000A2B1E06C884200D30146E06A884235D0A3
:1021A000012A33D11A4D2A6894420FD1502080F36E
:1021B0001188BFF34F8FBFF36F8FFEE7502080F37E
:1021C0001188BFF34F8FBFF36F8FFEE7E162A26903
:1021D000002A02DBC1F13801A1610E4E00EB800044
:1021E000616906EB8000814210D1201DFFF73EFEA1
:1021F000E06AA969884200D9A86100EB800006EB7B
:102200008000211DBDE87040FFF782BE70BD000058
:10221000240000209001002030B587B000240394F2
:1022200005AA04A903A80494FFF734FEDDE903011D
:102230000094CDE90110002315A11748059A00F07C
:102240004CFC164D002868631FD000F0FFFD0128EC
:1022500009D0401C19D1502080F31188BFF34F8F53
:10226000BFF36F8FFEE7502080F31188BFF34F8FCD
:10227000BFF36F8F4FF0FF3028630120E8616C617E
:1022800007B0BDE8304000F045B807B030BD0000F1
:1022900049444C45000000002D190008240000208E
:1022A0000248816B491C81637047000024000020B4
:1022B000164810B5816B11B10121416210BD00219A
:1022C00041628169124A01E0B9B1491E01EB810303
:1022D00052F82330002BF7D001EB810302EB83028D
:1022E00002F1080453685B685360A34201D15B6844
:1022F0005360DA680260816110BD502080F311885C
:10230000BFF34F8FBFF36F8FFEE700002400002064
:10231000900100201CB537480168374A914207D127
:10232000502080F31188BFF34F8FBFF36F8FFEE70C
:1023300000683149491E884207D1502080F3118836
:10234000BFF34F8FBFF36F8FFEE72C4908780190E2
:10235000FF20087008788DF800009DF800009DF8B7
:10236000002000F0F000904207D0502080F3118848
:10237000BFF34F8FBFF36F8FFEE79DF80000204B38
:1023800000F0500018700720986005E09DF80020CC
:1023900052008DF80020401E9DF800201206F5D452
:1023A0009860032807D0502080F31188BFF34F8F27
:1023B000BFF36F8FFEE74FF440709860019808708C
:1023C0000C482030016841F470010160016841F05F
:1023D00070410160FFF7E8FD00205860FDF702FF43
:1023E0000848016841F040410160FDF7E7FE002028
:1023F0001CBD000000ED00E071C20F4100E400E0F0
:102400007800002034EF00E0F8B517460E460500CE
:1024100014D0DEB105FB06F05030FFF7DFFC0400FE
:102420000AD0002084F8460004F150023B463146B1
:1024300028460094FFF7AAFA2046F8BD502080F302
:102440001188BFF34F8FBFF36F8FFEE70020E3E7E4
:1024500038B5049D18B153B1CAB181B120E0502004
:1024600080F31188BFF34F8FBFF36F8FFEE75020CB
:1024700080F31188BFF34F8FBFF36F8FFEE75020BB
:1024800080F31188BFF34F8FBFF36F8FFEE739B131
:10249000502080F31188BFF34F8FBFF36F8FFEE79B
:1024A00050241C46012384F846302B460094FFF745
:1024B0006DFA204638BD000070B50D46040025D0E9
:1024C000FFF732FDD4E90F20216802FB0011A16063
:1024D0000021A163216861600A46D4E90F01401E12
:1024E00000FB0121E16021464FF0FF3001F8440F6D
:1024F000487004F110008DB1FFF7E4FC04F12400F2
:10250000FFF7E0FCFFF730FD012070BD502080F3A5
:102510001188BFF34F8FBFF36F8FFEE7216900294A
:10252000F0D000F0F9FB0028ECD004494FF08050C7
:102530000860BFF34F8FBFF36F8FE3E704ED00E058
:102540002DE9FF4782B01D468A464FF0000804007F
:1025500003D0BAF1000F08D011E0502080F31188A9
:10256000BFF34F8FBFF36F8FFEE7206C38B1502061
:1025700080F31188BFF34F8FBFF36F8FFEE7022DFB
:102580000AD1E06B012807D0502080F31188BFF3F7
:102590004F8FBFF36F8FFEE700F0CAFA3F4F4FF047
:1025A00000094FF0805648B9049838B1502080F3A4
:1025B0001188BFF34F8FBFF36F8FFEE7FFF7B4FCB7
:1025C000A06BE16B884207D3022D05D00498D0B1EF
:1025D000B8F1000F1AD01EE02A4651462046FFF7F8
:1025E00054F9616A19B104F1240000F095FB20B19F
:1025F0003E60BFF34F8FBFF36F8FFFF7B5FC012035
:1026000006B0BDE8F087FFF7AFFC22E06846FFF7B1
:1026100079FD4FF00108FFF7A7FCFFF741FEFFF738
:1026200083FC94F94400401C01D184F8449094F94F
:102630004500401C01D184F84590FFF795FC04A9A2
:10264000684600F0E3F930B12046FFF791FB00F057
:102650009BFB0020D4E7FFF767FCA06BE16B88428F
:1026600013D1FFF781FC04F110000499FFF758FD26
:102670002046FFF77DFB00F087FB00289ED13E60DF
:10268000BFF34F8FBFF36F8F98E7FFF76DFC2046C6
:10269000FFF76EFB00F078FB90E7000004ED00E030
:1026A0002DE9F0471F4690468946040003D0B9F152
:1026B000000F08D011E0502080F31188BFF34F8F36
:1026C000BFF36F8FFEE7206C38B1502080F3118884
:1026D000BFF34F8FBFF36F8FFEE7022F0AD1E06B7E
:1026E000012807D0502080F31188BFF34F8FBFF32C
:1026F0006F8FFEE7FFF76AFC5020EFF3118680F33F
:102700001188BFF34F8FBFF36F8FA06BE16B8842CF
:1027100006D3022F04D0002086F31188BDE8F0878D
:1027200094F945503A4649462046FFF7AEF8681CF2
:1027300004D06D1C84F845500120EDE7606A002844
:10274000FAD004F1240000F0E7FA0028F4D0B8F140
:10275000000FF1D00121C8F80010EDE72DE9F7478F
:10276000002683B08A46040003D0BAF1000F08D0D7
:1027700011E0502080F31188BFF34F8FBFF36F8FAC
:10278000FEE7206C38B1502080F31188BFF34F8FE3
:10279000BFF36F8FFEE700F0CBF9DFF8F4804FF066
:1027A00000094FF0805748B9059838B1502080F3A0
:1027B0001188BFF34F8FBFF36F8FFEE7FFF7B4FBB6
:1027C000A56BC5B151462046FFF74CF86D1EA563B9
:1027D000206950B104F1100000F09EFA28B1C8F849
:1027E0000070BFF34F8FBFF36F8FFFF7BDFB01206A
:1027F00006B0BDE8F087059808B11EB106E0FFF706
:10280000B3FB27E06846FFF77DFC0126FFF7ACFB32
:10281000FFF746FDFFF788FB94F94400401C01D107
:1028200084F8449094F94500401C01D184F8459007
:10283000FFF79AFB05A9684600F0E8F80028204653
:102840000AD0FFF795FA00F09FFA2046FFF724F927
:102850000028B3D00020CBE7FFF71EF990B104F1B8
:1028600024000599FFF75CFC2046FFF781FA00F091
:102870008BFA0028A2D1C8F80070BFF34F8FBFF3C6
:102880006F8F9BE72046FFF773FA00F07DFA95E71C
:1028900004ED00E02DE9F343002683B00400354643
:1028A00009D0206C78B1502080F31188BFF34F8F8E
:1028B000BFF36F8FFEE7502080F31188BFF34F8F77
:1028C000BFF36F8FFEE700F033F9DFF83C814FF084
:1028D00000094FF0805748B9049838B1502080F370
:1028E0001188BFF34F8FBFF36F8FFEE7FFF71CFB1D
:1028F000A06BC8B1401EA063206810B9FFF794FA1E
:10290000A060206950B104F1100000F005FA28B170
:10291000C8F80070BFF34F8FBFF36F8FFFF724FB32
:10292000012005B0BDE8F083049808B166B10FE05E
:102930003DB1502080F31188BFF34F8FBFF36F8FED
:10294000FEE7FFF711FB5DE06846FFF7DBFB0126C2
:10295000FFF70AFBFFF7A4FCFFF7E6FA94F944003F
:10296000401C01D184F8449094F94500401C01D1E9
:1029700084F84590FFF7F8FA04A9684600F046F895
:102980000028204612D0FFF7F3F900F0FDF92046A9
:10299000FFF782F80028A9D09DB3FFF7C5FA606A57
:1029A00050B3206B0068C0F1380126E0FFF774F8DF
:1029B000E0B1206838B9FFF7B7FAA06800F070F905
:1029C0000546FFF7D1FA04F124000499FFF7A8FBAC
:1029D0002046FFF7CDF900F0D7F9002886D1C8F8D6
:1029E0000070BFF34F8FBFF36F8F7FE72046FFF775
:1029F000BFF900F0C9F979E70021A068FFF7C4FB2F
:102A00009FE7FFE700208CE704ED00E02DE9F041AF
:102A10000C46050011D0C4B1FFF786FA174B5A696E
:102A20006E682068911B471C17D02F689B6A9F42D5
:102A300019D0964217D8012410E0502080F3118855
:102A4000BFF34F8FBFF36F8FFEE7502080F31188E5
:102A5000BFF34F8FBFF36F8FFEE70024FFF784FAB9
:102A60002046BDE8F081884205D9401A20602846FA
:102A7000FFF748FBF1E700202060DCE7240000209E
:102A80002DE9FF5F8346DDE90E87994616468A46A3
:102A90009000FFF7A3F905001CD05C20FFF79EF91A
:102AA000040014D00020256384F85900CDE90240C9
:102AB000CDE900874B46324651465846FEF778FF2F
:102AC0002046FEF73BFE012004B0BDE8F09F2846FB
:102AD000FFF75EFA4FF0FF30F6E7F0B585B0DDE9BD
:102AE0000B640A9DA6B1DCB15C2700972663022621
:102AF00084F85960002604AFCDE90246CDE90057BD
:102B0000FEF756FF2046FEF719FE049805B0F0BD0B
:102B1000502080F31188BFF34F8FBFF36F8FFEE714
:102B2000502080F31188BFF34F8FBFF36F8FFEE704
:102B30000548C16919B1806B18B1002070470120A8
:102B400070470220704700002400002001484069BF
:102B500070470000240000202DE9F0412E4C002792
:102B6000A06B40B1206A401C2062606A00B101275E
:102B70003846BDE8F0816669761C666113D16068ED
:102B8000006838B1502080F31188BFF34F8FBFF336
:102B90006F8FFEE76068A1686160A060A06A401C5A
:102BA000A062FFF765F8206BDFF87080864209D3DA
:102BB0006068006880B16068C068C56868688642FF
:102BC0000DD220632068C06A00EB800158F8210014
:102BD0000128CAD90127C8E74FF0FF30F1E7281DC7
:102BE000FFF744F9A86A18B105F11800FFF73EF99C
:102BF000E86AA169884200D9A06100EB800108EB76
:102C00008100291DFFF784F9E86A2168C96A8842B2
:102C1000CED30127CCE70000240000209001002043
:102C200070B504004FF0000133D01B4D286884427A
:102C300007D0502080F31188BFF34F8FBFF36F8F01
:102C4000FEE7206D38B1401E2065E36CE26A9A42CF
:102C50001FD040B11DE0502080F31188BFF34F8F8B
:102C6000BFF36F8FFEE7201DFFF700F9E06CE06215
:102C7000C0F13800A061E06AA969884200D9A86162
:102C8000064900EB800001EB8000211DFFF740F9B1
:102C90000121084670BD00002400002090010020A2
:102CA00070B504004FF000002BD0194DE16A2A687E
:102CB000D26A914226D2A069002804DB2868C06A43
:102CC000C0F13800A061134E01EB8101606906EB91
:102CD0008101884211D1201DFFF7C8F82868C06A19
:102CE000E062A969884200D9A86100EB800006EB88
:102CF0008000211DFFF70CF902E02868C06AE0623D
:102D0000012070BDE16C2A68D26A9142F8D370BD8F
:102D1000240000209001002070B5C068C46854B140
:102D200004F118000646FFF7A1F8144DA86B50B146
:102D30003146134815E0502080F31188BFF34F8FC0
:102D4000BFF36F8FFEE7201DFFF790F8E06AA969D7
:102D5000884200D9A8610B4900EB800001EB80009C
:102D6000211DFFF7D5F8E06A2968C96A884202D9AF
:102D70000120686270BD002070BD000024000020AA
:102D800018060020900100202DE9F0472C4D00246A
:102D90002746A86B38B1FFF7C7F8A86B401EA86399
:102DA000A86B40B146E0502080F31188BFF34F8FED
:102DB000BFF36F8FFEE72969224E0120D1B3A6F53C
:102DC000916980463068E0B1F068C46804F1180089
:102DD000FFF74CF8201DFFF749F8E06AA96988421F
:102DE00000D9A86100EB800109EB8100211DFFF7EC
:102DF0008FF8E06A2968C96A8842E3D3C5F824805D
:102E0000E0E70CB1FEF734FF2C6A4CB14FEA08063C
:102E1000FFF7A2FE00B16E62641EF9D100202862A5
:102E2000686A38B10849012738070860BFF34F8F37
:102E3000BFF36F8FFFF798F83846BDE8F0870000C2
:102E4000240000201806002004ED00E010B586B034
:102E5000FEF7DCFC114CA068B8B100200390049090
:102E600005AA04A903A8FFF721F8DDE90321022040
:102E70008DE8070000230AA10B48059AFFF72DFEF5
:102E8000E06010B106B0012010BD502080F3118821
:102E9000BFF34F8FBFF36F8FFEE70000600000208D
:102EA000546D7220537663004D1D00082DE9FF41DB
:102EB0001E46134602000A9D4FF0000016D0144C27
:102EC000A768002F0FD0CDE900130292062917DA68
:102ED000FFF72EFE02284FF000030FD000226946B4
:102EE000A068FFF72DFB04B0BDE8F081502080F30F
:102EF0001188BFF34F8FBFF36F8FFEE72A46EEE7CF
:102F00000023324669463846FFF7CAFBEBE700006C
:102F10006000002000000000000000000102030427
:102F20000607080900000000010203044C2F0008F6
:102F3000000000208C000000A2150008D82F000817
:102F40008C0000209CD70000B21500080000000093
:102F50000000000000000000000000000000000071
:102F60000100000010000000000000000024F40038
:102F70000000000000000000000000000000000051
:102F80000000000000000000000000000000000041
:102F90000000000000000000000000000000000031
:102FA0000000000000000000000000000000000021
:102FB0000000000000000000000000000000000011
:102FC0000000000000000000AAAAAAAA0000000059
:082FD0000000000000000000F9
:040000050800018965
:00000001FF
